:020000040000FA
:0400000029EF0FF0E5
:100600000058036F038503C303ED03F8033204545A
:1006100004554C4452535841425973204D61726302
:1006200068612000526164696F3A20002056656C51
:100630003A2000204B6D2F6800566F6C3A00202046
:0306400020000097
:10064400000E376E000E326E000E356E000E336EE5
:100654009DEC0DF030EC0EF0F1EC0CF086EC0AF0B1
:10066400000E086E020E076E90EC0BF0000E026E88
:10067400010E016EA2EC0CF001C038F002C039F09A
:1006840039BE50EF03F0F40E385C010E3958D8B07F
:100694004EEF03F050EF03F058EF03F0000E086E36
:1006A400020E076EE0EC0AF082EF03F039BE66EF4B
:1006B40003F0BC0E385C020E3958D8B064EF03F076
:1006C40066EF03F06EEF03F0000E086E030E076E84
:1006D400E0EC0AF082EF03F039BE7CEF03F0840E05
:1006E400385C030E3958D8B07AEF03F07CEF03F08E
:1006F40082EF03F0000E086E010E076EE0EC0AF0C4
:100704003750D8A488EF03F08AEF03F090EF03F09A
:10071400000E396E000E386E0CEF04F03704D8A4C6
:1007240096EF03F098EF03F0A8EF03F038C013F04E
:1007340039C014F0000E166E320E156E24EC0AF059
:1007440013C038F014C039F00CEF04F0020E37185F
:10075400D8A4AFEF03F0B1EF03F0C1EF03F038C05A
:1007640013F039C014F0000E166E140E156E24EC3E
:100774000AF013C038F014C039F00CEF04F0030E83
:100784003718D8A4C8EF03F0CAEF03F0DAEF03F088
:1007940038C013F039C014F0000E166E0A0E156E30
:1007A40024EC0AF013C038F014C039F00CEF04F054
:1007B400040E3718D8A4E1EF03F0E3EF03F0F3EFEE
:1007C40003F038C013F039C014F0000E166E070E93
:1007D400156E24EC0AF013C038F014C039F00CEF95
:1007E40004F0050E3718D8A4FAEF03F0FCEF03F079
:1007F4000CEF04F038C013F039C014F0000E166E7C
:10080400050E156E24EC0AF013C038F014C039F04C
:100814000CEF04F0000E346E89EC09F036502B6EA8
:100824002C6A34EC0FF02B50011809E12C500218FB
:10083400D8B41FEF04F021EF04F094EF04F034EC8B
:100844000FF00150366E36AA2AEF04F02CEF04F0B4
:1008540038EF04F0050E3718D8B433EF04F035EF51
:1008640004F038EF04F0372A000E326E36AE3DEF56
:1008740004F03FEF04F04AEF04F03750D8B445EFEA
:1008840004F047EF04F04AEF04F03706000E326E2E
:1008940036A24FEF04F051EF04F05CEF04F0355052
:1008A400D8B457EF04F059EF04F05CEF04F03506C8
:1008B400010E326E36A661EF04F063EF04F06FEFC1
:1008C40004F0070E3518D8B46AEF04F06CEF04F0A6
:1008D4006FEF04F0352A010E326E36A074EF04F087
:1008E40076EF04F082EF04F00C0E3318D8B47DEFE9
:1008F40004F07FEF04F082EF04F0332A010E326E2D
:1009040036A487EF04F089EF04F094EF04F0335039
:10091400D8B48FEF04F091EF04F094EF04F03306B1
:10092400010E326E342A070E34649BEF04F09DEFFF
:1009340004F00EEF04F06FEF06F0000E106E000EE0
:100944000F6E000E126E000E116EDBEC0DF0000E39
:100954000F6E020E0E6E15EC0DF05F0E0E14216E6E
:10096400226A7CEC0DF021C030F022C031F0000E80
:10097400166E0A0E156E30C013F031C014F024EC5C
:100984000AF013C025F014C026F0000E286E0A0EDB
:10099400276E38EC0BF02550300F0BEC0FF0000EE7
:1009A4000F6E020E0E6E15EC0DF05F0E0E14216E1E
:1009B400226A7CEC0DF021C025F022C026F0000E46
:1009C400286E0A0E276E38EC0BF02550300F0BEC16
:1009D4000FF03A0E0BEC0FF0000E0F6E010E0E6EC0
:1009E40015EC0DF07F0E0E14216E226A7CEC0DF0D6
:1009F40021C030F022C031F0000E166E0A0E156EC2
:100A040030C013F031C014F024EC0AF013C025F008
:100A140014C026F0000E286E0A0E276E38EC0BF078
:100A24002550300F0BEC0FF0000E0F6E010E0E6E02
:100A340015EC0DF07F0E0E14216E226A7CEC0DF085
:100A440021C025F022C026F0000E286E0A0E276E63
:100A540038EC0BF02550300F0BEC0FF0000E106E3D
:100A6400000E0F6E000E126E050E116EDBEC0DF013
:100A74001B0E0F6E060E106E4DEC0CF03750300F3F
:100A84000BEC0FF0000E106E010E0F6E000E126EC6
:100A9400000E116EDBEC0DF02C0E0F6E060E106EB8
:100AA4004DEC0CF0000E166E640E156E38C013F08B
:100AB40039C014F024EC0AF013C025F014C026F059
:100AC400000E286E0A0E276E38EC0BF02550300FFE
:100AD4000BEC0FF0000E166E0A0E156E38C013F0F4
:100AE40039C014F024EC0AF013C025F014C026F029
:100AF400000E286E0A0E276E38EC0BF02550300FCE
:100B04000BEC0FF038C025F039C026F0000E286E2B
:100B14000A0E276E38EC0BF02550300F0BEC0FF05B
:100B2400330E0F6E060E106E4DEC0CF038EF03F022
:100B3400000E106E000E0F6E000E126E000E116E7F
:100B4400DBEC0DF0240E0F6E060E106E4DEC0CF067
:100B5400030E166EE80E156E3550020D010EF324C9
:100B6400F66E060EF420F76E0900F5CF13F00A00B6
:100B7400F5CF14F024EC0AF013C025F014C026F0CD
:100B8400000E286E0A0E276E38EC0BF02550300F3D
:100B94000BEC0FF0000E166E640E156E3550020D40
:100BA400010EF324F66E060EF420F76E0900F5CF5D
:100BB40013F00A00F5CF14F024EC0AF013C025F06A
:100BC40014C026F0000E286E0A0E276E38EC0BF0C7
:100BD4002550300F0BEC0FF0000E166E0A0E156E3A
:100BE4003550020D010EF324F66E060EF420F76E56
:100BF4000900F5CF13F00A00F5CF14F024EC0AF045
:100C040013C025F014C026F0000E286E0A0E276EBD
:100C140038EC0BF02550300F0BEC0FF02C0E0BECD6
:100C24000FF03550020D010EF324F66E060EF4207B
:100C3400F76E0900F5CF25F00A00F5CF26F0000E77
:100C4400286E0A0E276E38EC0BF02550300F0BEC93
:100C54000FF03E0E0F6E060E106E4DEC0CF0000EF3
:100C6400106E010E0F6E000E126E000E116EDBEC94
:100C74000DF0390E0F6E060E106E4DEC0CF0000EDA
:100C8400346E33502B6E2C6A010E2B26000E2C2250
:100C940034502D6E2E6A2B502D5C2E50800A2F6EF0
:100CA4002C50800A2F58D8B05AEF06F05CEF06F0AB
:100CB40061EF06F02A0E0BEC0FF064EF06F0200E45
:100CC4000BEC0FF0342A0B0E34646BEF06F06DEF6F
:100CD40006F043EF06F038EF03F032502B6E2C6A27
:100CE4002C50000AD8B479EF06F038EF03F02B50FB
:100CF400000AD8B49FEF04F0010AD8B49AEF05F0C3
:100D040038EF03F000EF00F002BE94EF06F002505B
:100D140007E1080E015CD8B092EF06F094EF06F0FC
:100D2400BEEF06F003500410D8B49BEF06F09DEF1D
:100D340006F0ADEF06F001C005F0010E066E052ABF
:100D4400A6EF06F0D8900636052EA4EF06F006505E
:100D54008012ACEF07F001C005F0010E066E052A03
:100D6400B6EF06F0D8900636052EB4EF06F006501E
:100D7400FF0A8016ACEF07F002BECCEF06F002507B
:100D840007E1100E015CD8B0CAEF06F0CCEF06F014
:100D9400FAEF06F0F80E0126FF0E022203500410AB
:100DA400D8B4D7EF06F0D9EF06F0E9EF06F001C0AA
:100DB40005F0010E066E052AE2EF06F0D89006361D
:100DC400052EE0EF06F006508112ACEF07F001C0EB
:100DD40005F0010E066E052AF2EF06F0D8900636ED
:100DE400052EF0EF06F00650FF0A8116ACEF07F06F
:100DF40002BE08EF07F0025007E1180E015CD8B0FC
:100E040006EF07F008EF07F036EF07F0F00E0126C3
:100E1400FF0E022203500410D8B413EF07F015EFAD
:100E240007F025EF07F001C005F0010E066E052A54
:100E34001EEF07F0D8900636052E1CEF07F006507B
:100E44008212ACEF07F001C005F0010E066E052A10
:100E54002EEF07F0D8900636052E2CEF07F006503B
:100E6400FF0A8216ACEF07F002BE44EF07F002500F
:100E740007E1200E015CD8B042EF07F044EF07F021
:100E840072EF07F0E80E0126FF0E02220350041051
:100E9400D8B44FEF07F051EF07F061EF07F001C04E
:100EA40005F0010E066E052A5AEF07F0D8900636B3
:100EB400052E58EF07F006508312ACEF07F001C07F
:100EC40005F0010E066E052A6AEF07F0D890063683
:100ED400052E68EF07F00650FF0A8316ACEF07F003
:100EE40002BE80EF07F0025007E1280E015CD8B083
:100EF4007EEF07F080EF07F0ACEF07F0E00E01267D
:100F0400FF0E022203500410D8B48BEF07F08DEFCC
:100F140007F09DEF07F001C005F0010E066E052AEB
:100F240096EF07F0D8900636052E94EF07F006509A
:100F34008412ACEF07F001C005F0010E066E052A1D
:100F4400A6EF07F0D8900636052EA4EF07F006505A
:100F5400FF0A8416120002BEBBEF07F0025007E13D
:100F6400080E015CD8B0B9EF07F0BBEF07F0E5EF6E
:100F740007F003500410D8B4C2EF07F0C4EF07F031
:100F8400D4EF07F001C005F0010E066E052ACDEF7F
:100F940007F0D8900636052ECBEF07F006509212D4
:100FA400D3EF08F001C005F0010E066E052ADDEF4F
:100FB40007F0D8900636052EDBEF07F00650FF0A3F
:100FC4009216D3EF08F002BEF3EF07F0025007E1E8
:100FD400100E015CD8B0F1EF07F0F3EF07F021EF4A
:100FE40008F003500410D8B4FAEF07F0FCEF07F050
:100FF4000EEF08F001C005F0F80E0526010E066E8E
:10100400052A07EF08F0D8900636052E05EF08F0FC
:1010140006509312D3EF08F001C005F0F80E052630
:10102400010E066E052A19EF08F0D8900636052E33
:1010340017EF08F00650FF0A9316D3EF08F002BE2C
:101044002FEF08F0025007E1180E015CD8B02DEF25
:1010540008F02FEF08F05DEF08F003500410D8B447
:1010640036EF08F038EF08F04AEF08F001C005F059
:10107400F00E0526010E066E052A43EF08F0D890FF
:101084000636052E41EF08F006509412D3EF08F00F
:1010940001C005F0F00E0526010E066E052A55EF77
:1010A40008F0D8900636052E53EF08F00650FF0AD4
:1010B4009416D3EF08F002BE6BEF08F0025007E17C
:1010C400200E015CD8B069EF08F06BEF08F099EFDF
:1010D40008F003500410D8B472EF08F074EF08F06D
:1010E40086EF08F001C005F0E80E0526010E066E35
:1010F400052A7FEF08F0D8900636052E7DEF08F01C
:1011040006509512D3EF08F001C005F0E80E05264D
:10111400010E066E052A91EF08F0D8900636052ECA
:101124008FEF08F00650FF0A9516D3EF08F002BEC1
:10113400A7EF08F0025007E1280E015CD8B0A5EF34
:1011440008F0A7EF08F0D3EF08F003500410D8B468
:10115400AEEF08F0B0EF08F0C2EF08F001C005F000
:10116400E00E0526010E066E052ABBEF08F0D890A6
:101174000636052EB9EF08F006509612D3EF08F0A4
:1011840001C005F0E00E0526010E066E052ACDEF1E
:1011940008F0D8900636052ECBEF08F00650FF0A6B
:1011A4009616120002BEE2EF08F0025007E1080EA4
:1011B400015CD8B0E0EF08F0E2EF08F0F6EF08F0D9
:1011C40001C003F0010E046E032AEBEF08F0D8907F
:1011D4000436032EE9EF08F004508014056E055020
:1011E400016E026A88EF09F002BE04EF09F00250B2
:1011F40007E1100E015CD8B002EF09F004EF09F02A
:101204001AEF09F001C003F0F80E0326010E046E74
:10121400032A0FEF09F0D8900436032E0DEF09F0DE
:1012240004508114056E0550016E026A88EF09F0BE
:1012340002BE28EF09F0025007E1180E015CD8B095
:1012440026EF09F028EF09F03EEF09F001C003F0A2
:10125400F00E0326010E046E032A33EF09F0D89032
:101264000436032E31EF09F004508214056E055044
:10127400016E026A88EF09F002BE4CEF09F00250D9
:1012840007E1200E015CD8B04AEF09F04CEF09F0F9
:1012940062EF09F001C003F0E80E0326010E046EAC
:1012A400032A57EF09F0D8900436032E55EF09F0BE
:1012B40004508314056E0550016E026A88EF09F02C
:1012C40002BE70EF09F0025007E1280E015CD8B0AD
:1012D4006EEF09F070EF09F086EF09F001C003F03A
:1012E400E00E0326010E046E032A7BEF09F0D8906A
:1012F4000436032E79EF09F004508414056E05506A
:10130400016E026A88EF09F0016802681200000E9B
:101314003D6E000E3C6E000E0E6E000E0D6E0EBE87
:101324009DEF09F00E5009E1050E0D5CD8A09DEF6C
:1013340009F09FEF09F0A1EF09F002EF0AF00DC0E8
:101344000AF0030E0A26010E0B6E000E0C6E0A2A1A
:10135400AFEF09F0D8900B360C360A2EACEF09F03B
:101364000BC007F00CC008F0CAEC0CF0000E026EC3
:101374000A0E016ED4EC08F001500210D8B4C5EF87
:1013840009F0C7EF09F0DAEF09F00DC00AF0010E19
:101394000B6E000E0C6E0A2AD3EF09F0D8900B36B0
:1013A4000C360A2ED0EF09F00B503C120C503D12B3
:1013B400000E026E090E016ED4EC08F0015002100A
:1013C400D8B4E7EF09F0E9EF09F0FEEF09F00DC03A
:1013D4000AF0050E0A26010E0B6E000E0C6E0A2A88
:1013E400F7EF09F0D8900B360C360A2EF4EF09F01B
:1013F4000B503C120C503D120D4A0E2A91EF09F08D
:101404003C503A1807E13D503B18D8A40CEF0AF0C1
:101414000EEF0AF011EF0AF0410617EF0AF0010E81
:10142400416E3CC03AF03DC03BF04150D8A41DEFA2
:101434000AF01FEF0AF023EF0AF03AC03EF03BC077
:101444003FF01200000E186E16BE2DEF0AF02BEFBF
:101454000AF033EF0AF0156C161ED8B0162A010EE6
:10146400186E14BE3AEF0AF038EF0AF040EF0AF0B3
:10147400136C141ED8B0142A010E181A000E1A6E1A
:10148400000E196E15501610D8B44BEF0AF04DEF3C
:101494000AF075EF0AF0010E176E55EF0AF0D890B6
:1014A40015361636172A16AE5AEF0AF05CEF0AF014
:1014B40051EF0AF0D89019361A361550135C1650AD
:1014C4001458D8A068EF0AF06AEF0AF06FEF0AF038
:1014D4001550135E1650145A1980D89016321532CE
:1014E400172E5CEF0AF01850D8B47BEF0AF07DEFAA
:1014F4000AF081EF0AF0196C1A1ED8B01A2A19C022
:1015040013F01AC014F01200000E026E1C0E016ECD
:10151400000E046E000E036EADEC07F0000E026EBA
:101524001D0E016E000E046E000E036EADEC07F08E
:10153400BCEC0DF0000E026E0F0E016E62EC0EF0AC
:10154400000E0B6E000E0A6E030EE5EC0EF0000E9C
:10155400026E050E016E62EC0EF0000E0B6E000EB4
:101564000A6E030EE5EC0EF0000E026EA00E016E84
:1015740039EC0FF0000E0B6E000E0A6E030EE5EC54
:101584000EF0000E026EA00E016E39EC0FF0000E8C
:101594000B6E000E0A6E020EE5EC0EF0000E026EEB
:1015A4000A0E016E62EC0EF0280E1AEC0FF00C0E0F
:1015B4001AEC0FF0010E1AEC0FF0120007A0E5EF81
:1015C4000AF0E7EF0AF0F3EF0AF0000E026E180ECD
:1015D400016E000E046E010E036E86EC06F0FDEF44
:1015E4000AF0000E026E180E016E000E046E000E5C
:1015F400036E86EC06F007A202EF0BF004EF0BF08B
:1016040010EF0BF0000E026E190E016E000E046E48
:10161400010E036E86EC06F01AEF0BF0000E026E5C
:10162400190E016E000E046E000E036E86EC06F0B9
:1016340007A41FEF0BF021EF0BF02DEF0BF0000EC2
:10164400026E1A0E016E000E046E010E036E86EC1D
:1016540006F037EF0BF0000E026E1A0E016E000E4C
:10166400046E000E036E86EC06F01200000E2A6E65
:1016740026BE41EF0BF03FEF0BF047EF0BF0256C6C
:10168400261ED8B0262A010E2A6E28BE4EEF0BF075
:101694004CEF0BF052EF0BF0276C281ED8B0282A21
:1016A40027502810D8B459EF0BF05BEF0BF07FEF05
:1016B4000BF0010E296E63EF0BF0D8902736283615
:1016C400292A28AE68EF0BF06AEF0BF05FEF0BF0FE
:1016D4002750255C28502658D8A073EF0BF075EFDF
:1016E4000BF079EF0BF02750255E2850265AD8903E
:1016F40028322732292E6AEF0BF02A50D8B485EF0E
:101704000BF087EF0BF08BEF0BF0256C261ED8B097
:10171400262A25C025F026C026F0120007A095EF42
:101724000BF097EF0BF0A1EF0BF0000E026E180E0A
:10173400016E000E046E010E036E86EC06F007A225
:10174400A6EF0BF0A8EF0BF0B2EF0BF0000E026E59
:10175400190E016E000E046E010E036E86EC06F087
:1017640007A4B7EF0BF0B9EF0BF0C3EF0BF0000ECB
:10177400026E1A0E016E000E046E010E036E86ECEC
:1017840006F012000A6E0A50D8B4CBEF0BF0CDEF7E
:101794000BF0CFEF0BF038EC0DF0000E0B6E09BE22
:1017A400D6EF0BF0D9EF0BF0010EDAEF0BF0000ED1
:1017B40021EC0CF0D89009360B2A070E0B64E5EFE8
:1017C4000BF0E7EF0BF0D1EF0BF049EC0EF0085003
:1017D400D8B4EFEF0BF0F1EF0BF0F3EF0BF07AEC82
:1017E4000EF012000D6E0DC00CF00C3A0F0E0C161C
:1017F4000C50076E086ACAEC0CF0000E026E1D0E47
:10180400016E0AC003F00BC004F086EC06F05BEC3A
:101814000DF00DC00CF00F0E0C160C50076E086A7C
:10182400CAEC0CF0000E026E1D0E016E0AC003F02D
:101834000BC004F086EC06F05BEC0DF01200076EB2
:101844000750D8B428EF0CF02AEF0CF02EEF0CF070
:10185400F8EC0DF030EF0CF0BBEC0EF03AEC0FF0BE
:1018640014EC0EF00009D8B43AEF0CF03CEF0CF095
:1018740032EF0CF00750D8B442EF0CF044EF0CF008
:1018840046EF0CF0F8EC0DF03AEC0FF0D0EC0EF063
:101894003AEC0FF01200000E146E000E136E63EF9C
:1018A4000CF013500F24116E14501020126E11C03E
:1018B400F6FF12C0F7FF0800F5500BEC0FF0134AC7
:1018C400142A13500F24116E14501020126E11C0DC
:1018D400F6FF12C0F7FF0800F5500009D8A475EF11
:1018E4000CF077EF0CF053EF0CF012000A6E000EC0
:1018F4000D6E000E0C6E000E0B6E49EC0EF0096EB0
:101904000D500D2409100D6E0B4A0C2A0C5009E1E0
:10191400080E0B5CD8A091EF0CF093EF0CF07FEF66
:101924000CF00A5021EC0CF00850D8B49CEF0CF0E9
:101934009EEF0CF0A0EF0CF07AEC0EF00D501200BC
:10194400C30EC216025007E1030E015CD8B0ADEF1E
:101954000CF0AFEF0CF0B3EF0CF00144E846FC0BD5
:10196400C212C282C2B2B9EF0CF0BBEF0CF0B4EFFA
:101974000CF0C4CF03F0046A0350046E036AC3502E
:101984000326000E042203C001F004C002F012007A
:10199400000E026E080E016E000E046E000E036E41
:1019A40086EC06F0000E096E000E026E1E0E016E2D
:1019B400800E0714036E046A86EC06F0A6EC0EF0A3
:1019C400D89007360836092A070E0964ECEF0CF0A4
:1019D400EEEF0CF0D6EF0CF091EC0EF01200000ECE
:1019E400026E000E016E000E046E010E036EADEC6D
:1019F40007F0000E026E010E016E000E046E010E61
:101A0400036EADEC07F0000E026E020E016E000EC6
:101A1400046E010E036EADEC07F0C2800C0EC16EB5
:101A2400AA0EC06E1200000E086ED00E096E010ED2
:101A3400C4EC0BF0000E086E0EC009F0000EC4ECEE
:101A44000BF0000E086ED10E096E010EC4EC0BF003
:101A5400010E086E010E78EC0CF0106E1050116E31
:101A6400126A11C00EF012C00FF012004050D8B428
:101A74003EEF0DF040EF0DF050EF0DF0F8EC0DF0EF
:101A84003AEC0FF014EC0EF00009D8B44CEF0DF062
:101A94004EEF0DF044EF0DF03AEC0FF0F8EC0DF0D2
:101AA400BBEC0EF03AEC0FF0D0EC0EF0010E406EF1
:101AB4001200000E026E1C0E016E000E046E010E6A
:101AC400036E86EC06F0000E026E050E016E39EC14
:101AD4000FF0000E026E1C0E016E000E046E000E5E
:101AE400036E86EC06F0000E026E050E016E39ECF4
:101AF4000FF012000F0E2114236E000E2214246E18
:101B0400000E166E100E156E21C013F022C014F0D4
:101B140024EC0AF013C01BF014C01CF0000E1E6E5F
:101B24000A0E1D6EF8EC0EF023501B24216E245077
:101B34001C20226E1200000E026E180E016E000EA2
:101B4400046E000E036EADEC07F0000E026E190E6B
:101B5400016E000E046E000E036EADEC07F0000E75
:101B6400026E1A0E016E000E046E000E036EADECD2
:101B740007F01200000E026E1F0E016E000E046EBE
:101B8400000E036EADEC07F0000E026E080E016E3F
:101B9400000E046E000E036EADEC07F0000E026E34
:101BA4001E0E016E000E046E000E036EADEC07F007
:101BB40012000F501010D8A4E2EF0DF0E4EF0DF076
:101BC400E9EF0DF011500F0B800F1AEC0FF00F041A
:101BD4001010D8A4F0EF0DF0F2EF0DF0F7EF0DF0C8
:101BE40011500F0BC00F1AEC0FF01200000E026E12
:101BF4000C0E016E000E046E010E036EADEC07F0C8
:101C0400000E026E0C0E016ED4EC08F001500210AE
:101C1400D8A40FEF0EF012EF0EF0010E13EF0EF03A
:101C2400000E1200000E026E0B0E016E000E046E0A
:101C3400010E036EADEC07F0000E026E0B0E016E8A
:101C4400D4EC08F001500210D8A42BEF0EF02EEFC4
:101C54000EF0010E2FEF0EF0000E1200BCEC0DF092
:101C6400000E026E0A0E016E000E046E010E036E6B
:101C7400ADEC07F0000E026E090E016E000E046E4C
:101C8400010E036EADEC07F00C0EC16E1200F8EC01
:101C94000DF03AEC0FF014EC0EF00009D8B455EF47
:101CA4000EF057EF0EF04DEF0EF0F8EC0DF0076E5E
:101CB4003AEC0FF0D0EC0EF03AEC0FF007501200B3
:101CC400000E056E000E046E6AEF0EF0044A052A3B
:101CD4000150045C0550800A036E0250800A0358C8
:101CE400D8A077EF0EF079EF0EF068EF0EF0120047
:101CF400BBEC0EF03AEC0FF014EC0EF00009D8B483
:101D040086EF0EF088EF0EF07EEF0EF03AEC0FF057
:101D1400F8EC0DF03AEC0FF0000E406E1200000EDD
:101D2400026E1F0E016E000E046E010E036E86EC31
:101D340006F0000E026E1F0E016E000E046E000E01
:101D4400036E86EC06F01200000E026E080E016EA1
:101D5400000E046E010E036E86EC06F0000E026E99
:101D6400080E016E000E046E000E036E86EC06F083
:101D74001200000E026E0C0E016E000E046E000EB8
:101D8400036EADEC07F0000E026E0C0E016E000E39
:101D9400046E000E036E86EC06F01200000E026E56
:101DA4000B0E016E000E046E000E036EADEC07F018
:101DB400000E026E0B0E016E000E046E000E036E1A
:101DC40086EC06F012000C6E0CC007F0086ACAEC30
:101DD4000CF0000E026E1D0E016E0AC003F00BC063
:101DE40004F086EC06F05BEC0DF012001B501D02B3
:101DF400F3CF1FF0F4CF20F01B501E02F350202627
:101E04001C501D02F35020261FC01BF020C01CF0E4
:101E140012000E6E000E0B6E010E0A6E0E50F4ECE4
:101E24000BF0000E026E500E016E39EC0FF0120032
:101E34000E6E000E0B6E000E0A6E0E50F4EC0BF0DC
:101E4400000E026E020E016E62EC0EF0120000EE45
:101E54003AF0080EEE6AE806FDE1000EF86E0001A5
:101E640022EF03F03EC001F03FC002F01200120066
:021E740012005A
:020000040020DA
:08000000FFFFFFFFFFFFFFFF00
:020000040030CA
:0E000000FF071F1FFF8385FF0FC00FE00F409B
:00000001FF
